:020000040000FA
:100000000C945D000C9485000C9485000C94850084
:100010000C9485000C9485000C9485000C9485004C
:100020000C9485000C9485000C9485000C9485003C
:100030000C9485000C9485000C9485000C9485002C
:100040000C94DA020C9485000C9485000C948500C5
:100050000C9485000C9485000C9485000C9485000C
:100060000C9485000C94850000000008000201003B
:100070000003040700000000000000000000000072
:10008000250028002B0000000000240027002A0083
:10009000040404040404040402020202020203032E
:1000A0000303030301020408102040800102040836
:1000B0001020010204081020A60411241FBECFEF57
:1000C000D8E0DEBFCDBF11E0A0E0B1E0E6E4FAE0A9
:1000D00002C005900D92A831B107D9F721E0A8E13F
:1000E000B1E001C01D92A933B207E1F710E0CDE500
:1000F000D0E004C02197FE010E941B05CC35D1073A
:10010000C9F70E9424030C9421050C94000090E090
:10011000FC01EC55FF4F249180579F4FFC018491C7
:10012000882399F090E0880F991FFC01EA57FF4F50
:10013000A591B491FC01E458FF4F859194918FB73C
:10014000F894EC91E22BEC938FBF089590E0FC01C2
:10015000E859FF4F2491FC01EC55FF4F3491FC010D
:10016000E057FF4FE491EE23C9F0222339F023300A
:1001700001F1A8F4213019F1223029F1F0E0EE0F5D
:10018000FF1FE458FF4FA591B4918FB7F894EC91FD
:10019000611126C030953E233C938FBF08952730D0
:1001A000A9F02830C9F0243049F7809180008F7D74
:1001B00003C0809180008F7780938000DFCF84B56B
:1001C0008F7784BDDBCF84B58F7DFBCF8091B0006E
:1001D0008F778093B000D2CF8091B0008F7DF9CF20
:1001E0003E2BDACF3FB7F89480911D0190911E010C
:1001F000A0911F01B091200126B5A89B05C02F3FFB
:1002000019F00196A11DB11D3FBFBA2FA92F982F3C
:100210008827BC01CD01620F711D811D911D42E037
:10022000660F771F881F991F4A95D1F70895AF92DF
:10023000BF92CF92DF92EF92FF920F931F93CF93D3
:10024000DF936C017B018B01040F151FEB015E0135
:10025000AE18BF08C017D10759F06991D601ED91CA
:10026000FC910190F081E02DC6010995892B79F769
:10027000C501DF91CF911F910F91FF90EF90DF901B
:10028000CF90BF90AF900895089590E080E00895DA
:100290008F929F92AF92BF920F931F93CF93DF9352
:1002A000CDB7DEB7A1970FB6F894DEBF0FBECDBFB6
:1002B00019A2423008F44AE08E010F5D1F4F842ED0
:1002C000912CB12CA12CA50194010E94E304E62FEE
:1002D000B901CA01EA3044F5E05DD801EE938D0121
:1002E000232B242B252B79F790E080E0109769F0E1
:1002F000FD0101900020E9F73197AF014A1B5B0B2C
:10030000BD0181E291E00E941701A1960FB6F89419
:10031000DEBF0FBECDBFDF91CF911F910F91BF9078
:10032000AF909F908F900895E95CD7CFCF93DF93E4
:10033000EC0160E08E810E94A60061E08E810E9447
:10034000A60060E08E810E94A6008BE891E00197F4
:10035000F1F7DF91CF910895CF92DF92EF92FF9264
:100360000F931F93CF93DF936C017C0187E0E80E1E
:10037000F11CD0E0C0E0062F10E0B8010C2E02C046
:10038000759567950A94E2F76170F70181917F0195
:100390000E94A6002196C430D10579F7C601DF91ED
:1003A000CF911F910F91FF90EF90DF90CF900C9421
:1003B0009601CF92DF92EF92FF920F931F93CF930C
:1003C000DF93EC01F62E642F8C810E94A6008D81B4
:1003D0008F3F19F060E00E94A6000F2D10E08F857E
:1003E00084FF25C06E0187E0C80ED11CF12CE12CE2
:1003F000B8010E2C02C0759567950A94E2F76170FA
:10040000F60181916F010E94A600FFEFEF1AFF0A2B
:1004100088E0E816F10461F7CE01DF91CF911F91DA
:100420000F91FF90EF90DF90CF900C949601B80160
:1004300084E0759567958A95E1F7CE010E94AC013D
:100440006F2DCE01DF91CF911F910F91FF90EF9013
:10045000DF90CF900C94AC0140E0682F81E291E0F6
:100460000C94D901CF93DF93823029F4909130011D
:10047000986090933001809334011092350180E4AC
:100480008093360180E18093370180E580933801C5
:10049000809125010E948700809126018F3F11F0F5
:1004A0000E948700809127010E948700C1E2D1E06D
:1004B0009E01215231408091300184FD0AC084E0C8
:1004C00090E02196281739073CF48E810E9487001E
:1004D000EFCF88E090E0F5CF8BE39DE00197F1F757
:1004E00060E0809125010E94A60060E080912701D4
:1004F0000E94A600809126018F3F19F060E00E94C3
:10050000A6008091300184FD39C063E081E291E072
:100510000E94AC01CBE4D6E4CE010197F1F763E091
:1005200081E291E00E94AC012197F1F763E081E262
:1005300091E00E94AC0183E592E00197F1F762E05F
:1005400081E291E00E94AC018091300180620E94C2
:100550002C0284E0809331018CE00E942C0281E027
:100560000E942C028BE39FE10197F1F782E08093D8
:10057000320186E0DF91CF910C942C0280620E94C0
:100580002C028BE496E40197F1F7809130018062B0
:100590000E942C0283E592E00197F1F780913001EF
:1005A00080620E942C02D0CF41E00E94D90181E0FC
:1005B00090E008951F920F920FB60F9211242F937F
:1005C0003F938F939F93AF93BF9380911901909125
:1005D0001A01A0911B01B0911C013091180123E078
:1005E000230F2D3758F50196A11DB11D2093180139
:1005F0008093190190931A01A0931B01B0931C01E1
:1006000080911D0190911E01A0911F01B0912001C8
:100610000196A11DB11D80931D0190931E01A09311
:100620001F01B0932001BF91AF919F918F913F9196
:100630002F910F900FBE0F901F90189526E8230F53
:100640000296A11DB11DD2CF789484B5826084BD7D
:1006500084B5816084BD85B5826085BD85B58160C6
:1006600085BD80916E00816080936E001092810044
:1006700080918100826080938100809181008160FF
:1006800080938100809180008160809380008091C0
:10069000B10084608093B1008091B000816080934C
:1006A000B00080917A00846080937A0080917A0013
:1006B000826080937A0080917A00816080937A00D2
:1006C00080917A00806880937A001092C10082E065
:1006D0000E94320280E00E94870081E00E94870031
:1006E00082E00E94870083E00E94870084E00E94ED
:1006F000870085E00E94870086E00E94870087E0EF
:100700000E94870044244A9493E0592E612C712C56
:100710002BE3222E2FE1322E00E010E020E4209384
:100720007C0080917A00806480937A0080917A00C6
:1007300086FDFCCFC0917800D09179002FEF30E09A
:10074000DE010E941405A30192010E94C404690104
:100750007A01E1E0809134018111E0E0E195F0E07F
:10076000EF5DFE4F848980680E942C024BE050E0D0
:100770006CE071E081E291E00E941701E0913401A8
:10078000E23008F082C0E150F0E0EF5DFE4F848976
:1007900080680E942C024AE0C701B601F7FE0EC035
:1007A00041E06DE281E291E00E94D901662777275E
:1007B000CB016C197D098E099F094AE00E9448010E
:1007C0000E94F2004B015C018AE0C82ED12CE12C82
:1007D000F12C0E94F200681979098A099B09683E88
:1007E000734081059105A8F381E0C81AD108E1089A
:1007F000F10828EE820E23E0921EA11CB11CC11448
:10080000D104E104F10429F781E00E942C02C10126
:100810000197F1F72097D9F560E081E00E94A600EA
:1008200060E082E00E94A60060E083E00E94A600F3
:1008300060E084E00E94A60060E085E00E94A600DF
:1008400060E086E00E94A60060E087E00E94A600CB
:1008500060E086E00E94A60060E085E00E94A600BD
:1008600060E084E00E94A60060E083E00E94A600B1
:1008700060E082E00E94A60060E081E00E94A600A5
:1008800060E080E00E94A60057C0E1E07DCF1C162A
:100890001D060CF058C061E087E00E94A600C1323E
:1008A000D10574F161E086E00E94A600C134D10553
:1008B0003CF161E085E00E94A600C136D10504F15B
:1008C00061E084E00E94A600C138D105CCF061E06F
:1008D00083E00E94A600C13AD10594F061E082E075
:1008E0000E94A600C13CD1055CF061E081E00E945D
:1008F000A600C13ED10524F061E080E00E94A60080
:10090000C032D1050CF4A4CFC034D1050CF4A4CF6F
:10091000C036D1050CF4A4CFC038D1050CF4A4CF57
:10092000C03AD1050CF4A4CFC03CD1050CF4A4CF3F
:10093000C03ED1050CF4A4CF0115110509F4EECE8B
:100940000E940000EBCED7FFDBCF7ECFE1E2F1E0EB
:100950001382128284E091E0918380838DE084830E
:100960008FEF85838CE086838BE087838AE08087A6
:1009700089E0818788E0828713861486158616862B
:10098000178681E00C943202052E97FB1EF400942A
:100990000E94DB0457FD07D00E94E30407FC03D04C
:1009A0004EF40C94DB0450954095309521953F4FC3
:1009B0004F4F5F4F089590958095709561957F4F4B
:1009C0008F4F9F4F0895A1E21A2EAA1BBB1BFD015A
:1009D0000DC0AA1FBB1FEE1FFF1FA217B307E4071E
:1009E000F50720F0A21BB30BE40BF50B661F771F76
:1009F000881F991F1A9469F7609570958095909556
:100A00009B01AC01BD01CF010895A29FB001B39F2E
:100A1000C001A39F700D811D1124911DB29F700D07
:100A2000811D1124911D08950E940505B7FF0895A9
:100A3000821B930B0895EE0FFF1F0590F491E02D9C
:100A40000994F894FFCF00000000D402170145017B
:0E0A500044014144432056414C55453D200091
:107E0000112484B714BE81FFF0D085E080938100F7
:107E100082E08093C00088E18093C10086E0809377
:107E2000C20080E18093C4008EE0C9D0259A86E02C
:107E300020E33CEF91E0309385002093840096BBD3
:107E4000B09BFECF1D9AA8958150A9F7CC24DD24C4
:107E500088248394B5E0AB2EA1E19A2EF3E0BF2EE7
:107E6000A2D0813461F49FD0082FAFD0023811F036
:107E7000013811F484E001C083E08DD089C08234E0
:107E800011F484E103C0853419F485E0A6D080C0E4
:107E9000853579F488D0E82EFF2485D0082F10E0AE
:107EA000102F00270E291F29000F111F8ED06801E7
:107EB0006FC0863521F484E090D080E0DECF843638
:107EC00009F040C070D06FD0082F6DD080E0C81688
:107ED00080E7D80618F4F601B7BEE895C0E0D1E017
:107EE00062D089930C17E1F7F0E0CF16F0E7DF06D8
:107EF00018F0F601B7BEE89568D007B600FCFDCFD4
:107F0000A601A0E0B1E02C9130E011968C91119780
:107F100090E0982F8827822B932B1296FA010C0160
:107F200087BEE89511244E5F5F4FF1E0A038BF0790
:107F300051F7F601A7BEE89507B600FCFDCF97BE46
:107F4000E89526C08437B1F42ED02DD0F82E2BD052
:107F50003CD0F601EF2C8F010F5F1F4F84911BD097
:107F6000EA94F801C1F70894C11CD11CFA94CF0C13
:107F7000D11C0EC0853739F428D08EE10CD085E9AC
:107F80000AD08FE07ACF813511F488E018D01DD067
:107F900080E101D065CF982F8091C00085FFFCCF94
:107FA0009093C60008958091C00087FFFCCF809118
:107FB000C00084FD01C0A8958091C6000895E0E648
:107FC000F0E098E1908380830895EDDF803219F02E
:107FD00088E0F5DFFFCF84E1DECF1F93182FE3DFCA
:107FE0001150E9F7F2DF1F91089580E0E8DFEE27F6
:047FF000FF270994CA
:027FFE00040479
:00000001FF
